:020000040800F2
:10000000800A00200D020008990900084F06000828
:1000100095090008190500081310000800000000E9
:10002000000000000000000000000000650B000858
:100030001D050008000000002D0A0008790C0008CA
:1000400027020008270200082702000827020008EC
:1000500027020008270200082702000827020008DC
:1000600027020008270200082702000827020008CC
:1000700027020008270200082702000827020008BC
:1000800027020008270200082702000827020008AC
:10009000270200082702000827020008270200089C
:1000A000270200082702000827020008270200088C
:1000B00027020008DD0C00082702000827020008BC
:1000C000270200082702000827020008270200086C
:1000D00027020008350D0008270200082702000843
:1000E000270200082702000827020008270200084C
:1000F000270200082702000827020008270200083C
:10010000270200082702000827020008270200082B
:10011000270200082702000827020008270200081B
:10012000270200082702000827020008270200080B
:1001300000F002F800F05AF80AA090E8000C82449F
:100140008344AAF10107DA4501D100F04FF8AFF27C
:10015000090EBAE80F0013F0010F18BFFB1A43F0A5
:1001600001031847F0140000101500000A444FF076
:10017000000C10F8013B13F0070408BF10F8014B06
:100180001D1108BF10F8015B641E05D010F8016B4B
:10019000641E01F8016BF9D113F0080F1EBF10F8AF
:1001A000014BAD1C0C1B09D16D1E58BF01F801CBD2
:1001B000FAD505E014F8016B01F8016B6D1EF9D555
:1001C0009142D6D37047000000230024002500266A
:1001D000103A28BF78C1FBD8520728BF30C148BFAA
:1001E0000B6070471FB51FBD10B510BD00F0C9F8FA
:1001F0001146FFF7F7FF00F091FF00F0E7F803B4B6
:10020000FFF7F2FF03BC00F006FF0000094880473B
:1002100009480047FEE7FEE7FEE7FEE7FEE7FEE7E8
:10022000FEE7FEE7FEE7FEE704480549054A064B00
:10023000704700007D0C0008310100088004002098
:10024000800A00208006002080060020704710B53C
:10025000431C02E010F8011B71B18107FAD14FF085
:10026000013202C88C1A8C4314EAC211F9D0C01AA8
:100270000A0603D0C01E10BDC01A10BD0A0401D06A
:10028000801E10BD0902FCD0401E10BD032A40F2A2
:10029000308010F0030C00F0158011F8013BBCF128
:1002A000020F624498BF11F801CB00F8013B38BF40
:1002B00011F8013BA2F1040298BF00F801CB38BF4E
:1002C00000F8013B11F0030300F02980083AC0F068
:1002D000088051F8043B083A51F804CBA0E8081014
:1002E000F5E7121D5CBF51F8043B40F8043BAFF347
:1002F0000080D20724BF11F8013B11F801CB48BFA1
:1003000011F8012B24BF00F8013B00F801CB48BFD6
:1003100000F8012B7047704770477047704710B561
:10032000203AC0F00B80B1E81850203AA0E81850ED
:10033000B1E81850A0E81850BFF4F5AF5FEA027CAE
:1003400024BFB1E81850A0E8185044BF18C918C01D
:10035000BDE810405FEA827C24BF51F8043B40F8BE
:10036000043B08BF7047D20728BF31F8023B48BFA3
:1003700011F8012B28BF20F8023B48BF00F8012BE1
:100380007047754600F02CF8AE46050069465346A6
:1003900020F00700854618B020B5FFF745FFBDE8FF
:1003A00020404FF000064FF000074FF000084FF0DC
:1003B000000B21F00701AC46ACE8C009ACE8C0096D
:1003C000ACE8C009ACE8C0098D46704710B50446DA
:1003D000AFF300802046BDE81040FFF710BF0000DB
:1003E000004870472004002010B500F05BF910BDF4
:1003F00070B506460C46154608E03046721C96B2AB
:1004000000F007F804F8010B681E85B2002DF4D146
:1004100070BD70B50446002600F0FAF92546E117D4
:1004200004EB11610912A02202EB4101C8B200F0F5
:10043000B5F900F039FAE11704EB11610912A4EBE8
:100440000121C8B200F0AAF900F02EFA00F0E0F99C
:10045000A12000F0A3F900F027FA002000F066F9CF
:10046000064600F0FBF9304670BD70B505460C46F7
:10047000164606E02178284600F009F8681C85B287
:10048000641C301EA6F101018EB2F3D170BD70B5AF
:1004900004460E4600F0BCF92546E11704EB116155
:1004A0000912A02202EB4101C8B200F077F900F076
:1004B000FBF9E11704EB11610912A4EB0121C8B2A9
:1004C00000F06CF900F0F0F9304600F067F900F048
:1004D000EBF900F0C3F90A2000F0C2FD70BD000086
:1004E00008B50121082000F0B3FA4FF48070ADF890
:1004F000000010208DF8030003208DF802006946EB
:10050000044800F00CF84FF48071024800F09BF8AA
:1005100008BD0000000C014000BFFEE770472DE958
:10052000F041024600250026002000230024002779
:1005300091F803C00CF00F0591F803C00CF0100CFB
:10054000BCF1000F03D091F802C04CEA050591F808
:1005500000C0BCF1000F31D0146800202BE04FF038
:10056000010C0CFA00F3B1F800C00CEA03069E423D
:1005700020D183004FF00F0C0CFA03F7BC4305FAAF
:1005800003FC4CEA040491F803C0BCF1280F06D127
:100590004FF0010C0CFA00FCC2F814C00AE091F80C
:1005A00003C0BCF1480F05D14FF0010C0CFA00FC60
:1005B000C2F810C0401C0828D1D31460B1F800C0A4
:1005C000BCF1FF0F34DD546800202EE000F1080C70
:1005D0004FF0010808FA0CF3B1F800C00CEA03066A
:1005E0009E4221D183004FF00F0C0CFA03F7BC435D
:1005F00005FA03FC4CEA040491F803C0BCF1280F8F
:1006000005D100F1080C08FA0CF8C2F8148091F832
:1006100003C0BCF1480F07D100F1080C4FF00108EE
:1006200008FA0CF8C2F81080401C0828CED3546099
:10063000BDE8F0810246002093680B400BB1012019
:1006400000E000207047416170470161704700BFC2
:10065000FEE7000010B500200F4908600F48006851
:1006600020F470400D4908600846006840F440508E
:10067000086000200A49C1F8AC01022000F016FD14
:10068000012005490860022000F010FD0020044907
:10069000C1F8A80110BD0000A8812142040C01404E
:1006A0000080214208B50121082000F0D1F94FF463
:1006B0004060ADF8000010208DF8030003208DF895
:1006C000020069460448FFF72AFF4FF440610248E0
:1006D000FFF7BBFF08BD0000000C014010B5002073
:1006E0000F4908600F48006820F470400D49086009
:1006F0000846006840F44050086001200A49C1F8EB
:10070000AC01022000F0D2FC012005490860022063
:1007100000F0CCFC00200449C1F8A80110BD000085
:10072000A8812142040C01400080214270B5054699
:1007300000241748006820F47040154908600846F6
:10074000006840F400400860002616E000201149CF
:100750000860022000F0AAFC01200F49C1F8A8019E
:100760006006040E0B487C38006808B1601CC4B2F7
:10077000012000F09BFC701CC6B2082EE6DB15B908
:10078000FFF7ACFF01E0FFF765FF204670BD0000FA
:10079000040C0140A88121420080214270B504462A
:1007A0001848006820F47040164908600846006840
:1007B00040F44050086000201349086000251EE006
:1007C000E00920B101201049091D086003E0002064
:1007D0000D49091D08606006040E022000F066FC49
:1007E000012009490860022000F060FC0020074950
:1007F000C1F8A801022000F059FC681CC5B2082D00
:10080000DEDB70BD040C0140A88121420080214242
:1008100010B50F48006820F470400D490860084684
:10082000006840F44050086001200A4908600A4905
:10083000C1F8A801042000F039FC00200549086037
:10084000042000F033FC00200349C1F8A80110BDCA
:10085000040C0140AC8121420080214210B50F48B8
:10086000006820F470400D4908600846006840F4B4
:100870004050086000200A4908600A49C1F8AC01EC
:10088000042000F013FC0120054908600549C1F867
:10089000AC01042000F00AFC10BD0000040C014073
:1008A000A88121420080214210B50024144800682C
:1008B00020F47040124908600846006840F4004087
:1008C000086001200F49086000F0F0FB01200E498C
:1008D000C1F8A80100F0EAFB07E0601CC4B2FA2CE2
:1008E00003DDFFF7BBFF012010BD0648803800681C
:1008F0000028F2D10349091F086000BFF4E7000097
:10090000040C0140AC8121420080214208B5012144
:10091000442000F09DF81C20ADF8000048208DF820
:10092000030069460648FFF7FAFD0120ADF8000014
:1009300028208DF8030069460248FFF7F0FD08BD46
:10094000001801400008014008B50121482000F0CE
:100950007FF82020ADF8000010208DF80300032060
:100960008DF8020069460948FFF7D9FD20210748A4
:10097000FFF76BFE2020ADF8000069460448FFF742
:10098000CEFD20210248FFF760FE08BD000C0140AB
:100990000018014000BFFEE7704710B54FF4A0609B
:1009A00000F03AF810BD000070B5002100230F22BE
:1009B000C47804B3154C246804F4E064C4F5E0641E
:1009C000210AC1F10403CA40447804FA03F184788F
:1009D0001440214309010E4C0678A155047804F017
:1009E0001F050124AC4005786D11AD0005F1E0252F
:1009F000C5F8004109E0047804F01F050124AC406B
:100A0000044D0678761145F8264070BD0CED00E0E7
:100A100000E400E080E100E002490143024A116085
:100A2000704700000000FA050CED00E07047000080
:100A300029B1064A12690243044B1A6104E0034AD1
:100A400012698243014B1A61704700000010024096
:100A500029B1064A92690243044B9A6104E0034AB1
:100A600092698243014B9A61704700000010024076
:100A700029B1064AD2680243044BDA6004E0034A13
:100A8000D2688243014BDA607047000000100240D8
:100A900030B500210022002400232D4D6D6805F0A3
:100AA0000C0121B1042905D0082923D105E0294DE5
:100AB000056022E0274D05601FE0254D6D6805F4B7
:100AC0007012234D6D6805F48034022505EB9242C7
:100AD0001CB9214D554305600BE01D4D6D6805F4B3
:100AE00000351DB11C4D5543056002E0194D5543BD
:100AF000056002E0174D056000BF00BF144D6D6832
:100B000005F0F0010909154D6B5C0568DD40456095
:100B10000F4D6D6805F4E061090A104D6B5C456886
:100B2000DD4085600A4D6D6805F46051C90A0B4DC2
:100B30006B5C4568DD40C560054D6D6805F440415E
:100B4000890B074D6B5CC568B5FBF3F5056130BDDE
:100B50000010024000127A0000093D001802002037
:100B600028020020704710B500F002F810BD000008
:100B70000CB50020019000903348006840F48030AC
:100B80003149086000BF3048006800F40030009030
:100B90000198401C0190009818B90198B0F5A06F19
:100BA000F1D12948006800F4003010B10120009014
:100BB00001E0002000900098012843D123480068FC
:100BC00040F01000214908600846006820F003004A
:100BD00008600846006840F0020008601A48406853
:100BE000194948600846406848600846406840F433
:100BF000806048600846406820F47C1048600846E1
:100C0000406840F4E81048600846006840F0807092
:100C1000086000BF0C48006800F000700028F9D0A0
:100C20000948406820F003000749486008464068CA
:100C300040F00200486000BF0348406800F00C002C
:100C40000828F9D10CBD000000100240002002402D
:100C5000042808D14FF0E021096941F004014FF068
:100C6000E022116107E04FF0E021096921F0040161
:100C70004FF0E022116170477047000010B5134833
:100C8000006840F0010011490860084640681049BA
:100C900008400E494860084600680E4908400B4964
:100CA00008600846006820F4802008600846406814
:100CB00020F4FE0048604FF41F008860FFF753FFE8
:100CC0004FF000600449086010BD000000100240B1
:100CD0000000FFF8FFFFF6FE08ED00E010B501216F
:100CE000084800F016F858B10121064800F00EF847
:100CF0000548006808B9012000E0002002490860AA
:100D000010BD00000004004094812142CA430282C9
:100D1000704730B50246002000230024158A05EAFA
:100D20000103958905EA010413B10CB1012000E02B
:100D3000002030BD10B540F225511D4800F0A5F847
:100D400010B31B4800F05CF9C4B21A48008800F4E4
:100D50000040C8B91748008800F4804060B10A2CF0
:100D600003D000201349088020E01248008840F496
:100D700000401049088019E00D2C06D10D4800886C
:100D800040F480400B49088010E00A480088C0F316
:100D90000D0009490C5407480088401C054908808B
:100DA00008460088C72801DD0020088010BD00002B
:100DB00000380140340200205803002021B182890C
:100DC00042F40052828104E082894DF6FF731A409A
:100DD0008281704710B504462048844209D1012120
:100DE0008803FFF745FE00214FF48040FFF740FEE7
:100DF00032E01B48844209D101214804FFF718FE64
:100E000000214FF40030FFF713FE25E0154884421F
:100E100009D101218804FFF70BFE00214FF4802047
:100E2000FFF706FE18E01048844209D10121C804EA
:100E3000FFF7FEFD00214FF40020FFF7F9FD0BE066
:100E40000A48844208D101210805FFF7F1FD00217D
:100E50004FF48010FFF7ECFD10BD0000003801409A
:100E60000044004000480040004C0040005000405A
:100E700002460020B1F5007F00D100BF13880B406F
:100E80000BB1012000E00020704770B5024600243D
:100E900000230025002040F66A16B14200D100BFB1
:100EA000C1F3421501F01F03012606FA03F3012DD9
:100EB00002D19689334006E0022D02D1168A3340D2
:100EC00001E0968A33400C12012606FA04F41688D3
:100ED000344013B10CB1012000E0002070BDF0B52A
:100EE0000346002400260025002040F66A17B94278
:100EF00000D100BF1846C1F3421401F01F060127BC
:100F000007FA06F5012C01D10C3004E0022C01D1C6
:100F1000103000E014301AB107682F43076002E078
:100F20000768AF430760F0BD2DE9F04786B005467E
:100F30000E460024A24600BFA1460027B08900B19A
:100F400000BF2F462C8A4CF6FF700440F088044303
:100F50002C82AC894EF6F3100440B08831890843E6
:100F6000718908430443AC81AC8A4FF6FF400440CA
:100F7000B0890443AC8201A8FFF78AFD1F4887426D
:100F800002D1DDF810A001E0DDF80CA0A88900F482
:100F9000004040B10AEBCA0000EB0A10316849007A
:100FA000B0FBF1F807E00AEBCA0000EB0A10316869
:100FB0008900B0FBF1F86420B8FBF0F004012009CF
:100FC000642101FB1089A88900F4004040B132205F
:100FD00000EBC900B0FBF1F000F00700044308E0AB
:100FE000322000EB09106421B0FBF1F000F00F009B
:100FF00004432C8106B0BDE8F087000000380140B2
:1010000001468888C0F308007047C1F30802828057
:10101000704700BFFEE7014600BF704710B56FF094
:101020000400FFF715FE0A4800680A49B0FBF1F01A
:10103000094908700846007800EB4001C1EBC01078
:101040004FF6FF7101EAC0000449088010BD00009E
:101050000402002000127A002C0200202E02002040
:101060000146114A12884A434FF0E0235A61002298
:101070009A611A46126942F001021A6100BF4FF0EC
:10108000E022106900F001021AB100F48032002A57
:10109000F5D04FF0E022126922F001024FF0E02378
:1010A0001A6100229A6170472E0200200146114AFF
:1010B00012784A434FF0E0235A6100229A611A469F
:1010C000126942F001021A6100BF4FF0E02210697C
:1010D00000F001021AB100F48032002AF5D04FF07E
:1010E000E022126922F001024FF0E0231A6100228F
:1010F0009A6170472C02002010B5FFF78FFFFFF7B1
:101100004CFC4FF4165000F0F7F9FFF71DFCFFF709
:10111000E7F9FFF7FBFBFFF767F910BD0024FFF7C6
:10112000EBFF4BE010216048FFF784FA78B108210B
:101130005D48FFF77FFA50B104215B48FFF77AFA68
:1011400028B101215948FFF775FA012805D100F0AF
:101150008FF9C820FFF784FF31E05548008800F47C
:10116000004098B1524805782A4652495248FFF744
:101170008DF800205049485500F016F90646002029
:101180004B490880304600F03FF918E0601CC4B2BB
:101190000A20FFF765FF4948006830B9142C04D1D4
:1011A000012046490860002408E04448006828B14E
:1011B000322C03D10020414908600024B2E700BF6F
:1011C0002AE010213848FFF735FA78B1082136486F
:1011D000FFF730FA50B104213348FFF72BFA28B15A
:1011E00001213248FFF726FA012805D100F068F9FD
:1011F000C820FFF735FF10E0601CC4B20A20FFF7DB
:101200002FFF142C08D12D48006808B9012000E0F8
:1012100000202A4908600024D3E700BF24E02448C6
:10122000008800F4004078B1214805782A46214919
:101230002348FFF72BF800202149485500F0B0F96A
:1012400000201B49088010E0601CC4B20A20FFF790
:1012500007FF142C08D11948006808B9012000E0E4
:101260000020164908600024D9E700BF0120134977
:101270000C3108604FF4FA70FFF7F2FE00201149BC
:10128000C1F8A0010FE0601CC4B20A20FFF7E8FE1D
:101290003C2C08D10948006808B9012000E0002072
:1012A000064908600024EEE70018014000080140EC
:1012B0003402002058030020B8020020948121420B
:1012C000380200200080214270B503460C46002001
:1012D00021460EE05D5C302D09DB5D5C392D06DCBE
:1012E0005D5C00EB800605EB4605303DE8B24D1C29
:1012F000E9B29142EEDB70BD30B503460C460020EA
:10130000A51CE9B224E05D5C302D08DB5D5C392D65
:1013100005DC5D5C05EB0015303DE8B216E05D5C78
:10132000612D08DB5D5C7A2D05DC5D5C05EB00154D
:10133000613DE8B20AE05D5C412D07DB5D5C5A2D42
:1013400004DC5D5C05EB0015413DE8B24D1CE9B2E3
:101350009142D8DB30BD00003FB50FA53CCD8DE8F4
:101360003C00302200F8012B782200F8012B0A46BD
:10137000CB1701EB13731B111DF8033000F8013B71
:10138000CB1701EB13731B11A1EB03131DF80330F3
:1013900000F8013B3FBD0000303132333435363781
:1013A000383941424344454670B50622022113486C
:1013B000FFF7A2FF1249087010240AE00F48005DF1
:1013C000392803DC0D48005D302800DA06E0601C97
:1013D000C4B20A48FEF73BFFA042EFD800BF224646
:1013E00010210648FFF770FF05462A4605490448C4
:1013F0000078FEF7FDFF284670BD0000B80200200F
:101400000002002038030020F8B50646002423E03F
:101410001548015D6846FFF79FFF00250DE01DF8A8
:1014200005101248FFF7F1FD00BF40210F48FFF7FC
:101430001FFD0128F9D1681CC5B2042DEFDB202166
:101440000A48FFF7E2FD00BF40210848FFF710FD02
:101450000128F9D1601CC4B2B442D9DB0A21034887
:10146000FFF7D3FDF8BD000038030020003801402D
:1014700070B5002600241BE00F4901EBC410FEF7F5
:10148000E6FEC6B200250FE00B4800EBC410415D3C
:101490000A48FFF7BAFD00BF40210848FFF7E8FC03
:1014A0000128F9D1681CC5B2B542EDDB601CC4B29D
:1014B000032CE1DB70BD000000000020003801407B
:1014C00070B50B48FEF7C3FEC5B200240DE0084816
:1014D000015D0848FFF799FD00BF40210548FFF76F
:1014E000C7FC0128F9D1601CC4B2AC42EFDB70BD6F
:1014F000800100200038014010B586B0044601216B
:1015000044F20400FFF7A4FA2348FFF763FC4FF40A
:101510000070ADF8140003208DF8160018208DF827
:10152000170005A91D48FEF7FAFF4FF48060ADF8DB
:10153000140004208DF8170005A91848FEF7EFFFE6
:1015400025208DF8000003208DF801008DF80200A1
:1015500001208DF803006846FFF726FA0194002069
:10156000ADF80800ADF80A00ADF80C00ADF81000B9
:101570000C20ADF80E0001A90748FFF7D5FC0122A9
:1015800040F225510448FFF7AAFC01210248FFF769
:1015900015FC06B010BD00000038014000080140F5
:1015A0002DE9F0412848FEF752FEC5B2002600277B
:1015B000002410E0681E2449085C0A2807D0681E31
:1015C000085C0D2803D0681E085C202801D1681E25
:1015D000C5B2601CC4B2032CECDB002420E01A4826
:1015E000005D20280AD14FB9224639461648FFF738
:1015F00083FE16490870601CC7B20FE01248005DF8
:1016000020280BD1224639460F48FFF775FE314698
:10161000721CD6B20E4A5054601CC7B2601CC4B2D1
:10162000AC42DCDB224639460748FFF765FE31460F
:10163000721CD6B2064A5054324605490348007817
:10164000FEF713FFBDE8F081380200200002002001
:101650003803002074160008000000203802000043
:101660006C010008E8160008380200204808000055
:10167000C801000800166B493243D7DCCFDFCAB57A
:10168000D1E92D415432344330320D0A08136BCE68
:10169000E2ECDAE7E220B6ADE8F7AB6820D7E9BACA
:1016A000CF7F1108116C313820303520313020398E
:1016B0002034372033307E2108156EC7EBCAE4C8CA
:1016C000EBC4BFB1EAB5D8D6B7BACDCAFDBEDD848A
:1016D0001184A24A04680901020304060708090CE0
:0816E0006910C50204060800B0
:040000050800020DE0
:00000001FF
