:020000040800F2
:10000000A00E00202D020008390E0008270B000862
:10001000350E000865080008131A000800000000EB
:100020000000000000000000000000004510000873
:10003000F509000800000000CD0E0008A914000812
:10004000470200084702000847020008470200086C
:10005000470200084702000847020008470200085C
:10006000470200084702000847020008470200084C
:10007000470200084702000847020008470200083C
:10008000470200084702000847020008470200082C
:10009000470200084702000847020008470200081C
:1000A000470200084702000847020008470200080C
:1000B0000D150008851500084702000847020008D2
:1000C00047020008470200084702000847020008EC
:1000D00047020008351700084702000847020008D9
:1000E00047020008470200084702000847020008CC
:1000F00047020008470200084702000847020008BC
:1001000047020008470200084702000847020008AB
:10011000470200084702000847020008470200089B
:10012000470200084702000847020008470200088B
:1001300000F002F800F06BF80AA090E8000C82448E
:100140008344AAF10107DA4501D100F060F8AFF26B
:10015000090EBAE80F0013F0010F18BFFB1A43F0A5
:1001600001031847D83F0000F83F00000A444FF051
:10017000000C10F8013B13F0070408BF10F8014B06
:100180001D1108BF10F8015B641E05D010F8016B4B
:10019000641E01F8016BF9D113F0080F1EBF10F8AF
:1001A000014BAD1C0C1B09D16D1E58BF01F801CBD2
:1001B000FAD505E014F8016B01F8016B6D1EF9D555
:1001C0009142D6D37047000000230024002500266A
:1001D000103A28BF78C1FBD8520728BF30C148BFAA
:1001E0000B607047642900F09F80752900F09C80A7
:1001F000782900F0D580632900F05382732900F03C
:100200005882002070471FB51FBD10B510BD00F00B
:100210008BFA1146FFF7F7FF01F0C8FF00F0A9FACB
:1002200003B4FFF7F2FF03BC01F031FF0948804738
:1002300009480047FEE7FEE7FEE7FEE7FEE7FEE7C8
:10024000FEE7FEE7FEE7FEE704480549054A064BE0
:1002500070470000AD14000831010008A00800201C
:10026000A00E0020A00A0020A00A00207047000075
:100270000FB4044910B503AA029800F01FFA10BC8D
:100280005DF814FB1802002070B50446856900680B
:10029000C10601D5302600E02026C00707D070BD7A
:1002A000D4E9012130469047206A401C20626D1E2F
:1002B000F6D570BD70B5044685690078C00707D1D2
:1002C00070BDD4E9012120209047206A401C2062A3
:1002D0006D1EF6D570BD70B50C460546012A05D0D9
:1002E0002878800600D5EA69002302E0012305E0B2
:1002F0005B1C934202D2E05C0028F9D1A869E618A1
:10030000C01AA861286A184428622846FFF7BCFF73
:1003100004E0D5E9012114F8010B9047B442F8D369
:100320002846FFF7C7FF70BD2DE9F04106460024BF
:1003300010687529314616A510D0AFF3008000284B
:1003400002DA404213A507E031688A0701D512A5F9
:1003500002E0490704D511A5012401E0AFF30080B4
:1003600000210A2206F1240709E0B0FBF2FCB0FBF1
:10037000F2F302FB1C00303078541846491C002868
:10038000F3D123462A463046BDE8F04100F026B9B5
:10039000000000002D0000002B00000020000000E5
:1003A00070B504460D4621461068AFF300802188E1
:1003B000090502D50F4A7A4402E00E4A7A440E3209
:1003C000002104F1240305E000F00F060009965D0A
:1003D0005E54491C0028F7D120780023000704D57B
:1003E000702D02D009B1022311322046BDE87040C1
:1003F00000F0F4B82E3B00002DE9F05F894604467A
:100400004FF0000ADFF874B1FB44C0F820A020468A
:10041000E1688847002874D0252806D0D4E9012156
:100420009047206A401C2062F1E700265F46204684
:10043000E16888472028054607DB312D05D2781969
:1004400010F8200C08B10643F1E7B00701D526F0FB
:100450000406C4F81CA00027C4F818A02A2D09D04F
:10046000284601F00DFE38B304EB8708303DC8F88C
:10047000185019E059F8041B204604EB87029161DB
:10048000E1688847012F054618D1E069002820DA85
:1004900026F020061DE0D8F8180000EB800005EBE0
:1004A00040003038C8F818002046E1688847054603
:1004B00001F0E6FD0028EED1012F0AD02E2D08D143
:1004C0002046E16888477F1C0546022F46F020063B
:1004D000C4DBA069002803DA404246F00106A061AF
:1004E000F00701D026F010066C2D0BD0682D09D036
:1004F0004C2D39D06A2D35D0742D35D07A2D33D08E
:1005000016E038E0E1682F4620468847B8420546A5
:1005100009D16C2F26D04FF48060E1680643204655
:100520008847054604E06C2F1AD04FF480700643CC
:100530000DB3A5F14100192802D8203546F4006614
:100540004A462946204626604E46FFF74BFE80B1BC
:1005500001280BD0F61D26F0070000F1080956E728
:100560004020E4E78020D8E70020D6E706F1040920
:100570004DE7284652E7206ABDE8F09F043B0000A3
:1005800010B5431C02E010F8011B71B18107FAD1CC
:100590004FF0013202C88C1A8C4314EAC211F9D010
:1005A000C01A0A0603D0C01E10BDC01A10BD0A042E
:1005B00001D0801E10BD0902FCD0401E10BD704746
:1005C00070477047704710B500F08AF8006810BD9A
:1005D00010B5044600F084F8046010BD2DE9F04722
:1005E0000D4699469246044600F1240801688806A3
:1005F00004D5E06921F01001216000E00120A8424B
:1006000001DD471B00E00027A1697A1902EB090010
:10061000081AA0612078C00602D42046FFF734FEF5
:10062000002608E0D4E901211AF806009047206A64
:10063000401C761C20624E45F4DB2078C0060AD5AB
:100640002046FFF721FE06E0D4E901213020904743
:10065000206A401C2062381EA7F10107F4DC07E085
:10066000D4E9012118F805009047206A401C206257
:10067000281EA5F10105F3DC2046FFF71BFE2078BC
:10068000000602D50220BDE8F0870120FBE710B587
:10069000436913B1AFF3008001E0FFF71CFE0120B6
:1006A00010BD127800F124010A7000224A70012264
:1006B000EDE711684FF0FF32E9E70000074B70B536
:1006C0000D467B4400F015F80446284600F024F857
:1006D00010B14FF0FF3070BD204670BDAB1A000066
:1006E000004870473C08002001694A1C02610878F4
:1006F000704700B58FB0CDE9013100210591054962
:100700007944CDE9031011466846FFF775FE0FB036
:1007100000BD0000E5FFFFFF007B00F08000704798
:10072000004870473C0800207546FFF7F9FFAE46C9
:1007300005006946534620F00700854618B020B5ED
:10074000FFF782FDBDE820404FF000064FF00007A4
:100750004FF000084FF0000B21F00701AC46ACE869
:10076000C009ACE8C009ACE8C009ACE8C0098D46D6
:10077000704710B50446AFF300802046BDE8104036
:10078000FFF74EBD70B50446002600F091FA2546ED
:10079000E11704EB11610912A02202EB4101C8B27A
:1007A00000F04CFA00F0D0FAE11704EB11610912E5
:1007B000A4EB0121C8B200F041FA00F0C5FA00F044
:1007C00077FAA12000F03AFA00F0BEFA002000F01B
:1007D000FDF9064600F092FA304670BD70B5044649
:1007E0000E4600F065FA2546E11704EB1161091287
:1007F000A02202EB4101C8B200F020FA00F0A4FAF6
:10080000E11704EB11610912A4EB0121C8B200F059
:1008100015FA00F099FA304600F010FA00F094FA58
:1008200000F06CFA0A2001F057FC70BD08B50121F8
:10083000082000F07DFB4FF48070ADF80000102020
:100840008DF8030003208DF802006946044800F08B
:10085000D2F84FF48071024800F061F908BD000041
:10086000000C014000BFFEE739B1084A12680123BD
:1008700083401A43054B1A6006E0044A12680123BC
:1008800083409A43014B1A60704700000074004097
:1008900041B1094A12684FF4805383401A43064B12
:1008A0001A6007E0044A12684FF4805383409A4369
:1008B000014B1A60704700000074004030B5002200
:1008C00000230A4C226840F6FE748440A243D1E91A
:1008D00000452C438D682C43CD6844EA050303FA98
:1008E00000F42243014C226030BD0000007400403F
:1008F00008B500220092054A009200F10802009B10
:100900001A440092009A116008BD00000074004073
:100910000021016041608160C160704721B10268BF
:1009200042F00102026004E002684FF6FE731A40D2
:100930000260704710B50022026847F6F0739A43D0
:100940000C6A8B6823430C6923434C6923438C69ED
:100950002343CC6923434C6A23438C6A23431A43C1
:100960000260CB6843600B6883604B68C36010BD56
:100970000021016041608160C1600161416181616C
:10098000C1610162416281627047000000B585B0BB
:100990000121042000F0CCFA0121480700F0A8FA58
:1009A0001020ADF8100000208DF8130003208DF802
:1009B000120004A90E4800F01EF810210C4800F0A7
:1009C000B0F824200090802001904FF42060029025
:1009D0000220039069460020FFF770FF01210020EC
:1009E000FFF742FF00210846FFF782FF05B000BD78
:1009F0000008014070472DE9F0410246002500261D
:100A0000002000230024002791F803C00CF00F05FC
:100A100091F803C00CF0100CBCF1000F03D091F85A
:100A200002C04CEA050591F800C0BCF1000F31D0BE
:100A3000146800202BE04FF0010C0CFA00F3B1F821
:100A400000C00CEA03069E4220D183004FF00F0C39
:100A50000CFA03F7BC4305FA03FC4CEA040491F8D2
:100A600003C0BCF1280F06D14FF0010C0CFA00FCBA
:100A7000C2F814C00AE091F803C0BCF1480F05D1D8
:100A80004FF0010C0CFA00FCC2F810C0401C082802
:100A9000D1D31460B1F800C0BCF1FF0F34DD54684D
:100AA00000202EE000F1080C4FF0010808FA0CF3CA
:100AB000B1F800C00CEA03069E4221D183004FF03A
:100AC0000F0C0CFA03F7BC4305FA03FC4CEA0404D0
:100AD00091F803C0BCF1280F05D100F1080C08FA09
:100AE0000CF8C2F8148091F803C0BCF1480F07D18C
:100AF00000F1080C4FF0010808FA0CF8C2F8108059
:100B0000401C0828CED35460BDE8F0810246002086
:100B100093680B400BB1012000E000207047416159
:100B200070470161704700BFFEE7000010B500206C
:100B30000F4908600F48006820F470400D490860B4
:100B40000846006840F44050086000200A49C1F897
:100B5000AC01022001F0E6FA0120054908600220FC
:100B600001F0E0FA00200449C1F8A80110BD00001E
:100B7000A8812142040C01400080214210B50020D0
:100B80000F4908600F48006820F470400D49086064
:100B90000846006840F44050086001200A49C1F846
:100BA000AC01022001F0BEFA0120054908600220D4
:100BB00001F0B8FA00200449C1F8A80110BD0000F6
:100BC000A8812142040C01400080214270B50546F5
:100BD00000241748006820F4704015490860084652
:100BE000006840F400400860002616E0002011492B
:100BF0000860022001F096FA01200F49C1F8A8010F
:100C00006006040E0B487C38006808B1601CC4B252
:100C1000012001F087FA701CC6B2082EE6DB15B978
:100C2000FFF7ACFF01E0FFF781FF204670BD000039
:100C3000040C0140A88121420080214270B5044685
:100C40001848006820F4704016490860084600689B
:100C500040F44050086000201349086000251EE061
:100C6000E00920B101201049091D086003E00020BF
:100C70000D49091D08606006040E022001F052FAB9
:100C8000012009490860022001F04CFA00200749C0
:100C9000C1F8A801022001F045FA681CC5B2082D70
:100CA000DEDB70BD040C0140A8812142008021429E
:100CB00010B50F48006820F470400D4908600846E0
:100CC000006840F44050086001200A4908600A4961
:100CD000C1F8A801042001F025FA002005490860A8
:100CE000042001F01FFA00200349C1F8A80110BD3B
:100CF000040C0140AC8121420080214210B50F4814
:100D0000006820F470400D4908600846006840F40F
:100D10004050086000200A4908600A49C1F8AC0147
:100D2000042001F0FFF90120054908600549C1F8D8
:100D3000AC01042001F0F6F910BD0000040C0140E4
:100D4000A88121420080214210B500241448006887
:100D500020F47040124908600846006840F40040E2
:100D6000086001200F49086001F0DCF901200E49FC
:100D7000C1F8A80101F0D6F907E0601CC4B2FA2C52
:100D800003DDFFF7BBFF012010BD06488038006877
:100D90000028F2D10349091F086000BFF4E70000F2
:100DA000040C0140AC8121420080214208B50121A0
:100DB000442000F0BDF81C20ADF8000048208DF85C
:100DC000030069460648FFF716FE0120ADF8000053
:100DD00028208DF8030069460248FFF70CFE08BD85
:100DE000001801400008014008B50121482000F02A
:100DF0009FF82020ADF8000010208DF8030003209C
:100E00008DF8020069460948FFF7F5FD20210748E3
:100E1000FFF787FE2020ADF8000069460448FFF781
:100E2000EAFD20210248FFF77CFE08BD000C0140CE
:100E30000018014000BFFEE7704710B54FF4A060F6
:100E400000F03AF810BD000070B5002100230F2219
:100E5000C47804B3154C246804F4E064C4F5E06479
:100E6000210AC1F10403CA40447804FA03F18478EA
:100E70001440214309010E4C0678A155047804F072
:100E80001F050124AC4005786D11AD0005F1E0258A
:100E9000C5F8004109E0047804F01F050124AC40C6
:100EA000044D0678761145F8264070BD0CED00E043
:100EB00000E400E080E100E002490143024A1160E1
:100EC000704700000000FA050CED00E070470000DC
:100ED00029B1064A52690243044B5A6104E0034AAD
:100EE00052698243014B5A61704700000010024072
:100EF00029B1064AD2690243044BDA6104E0034A8D
:100F0000D2698243014BDA61704700000010024051
:100F100029B1064A12690243044B1A6104E0034AEC
:100F200012698243014B1A617047000000100240B1
:100F300029B1064A92690243044B9A6104E0034ACC
:100F400092698243014B9A61704700000010024091
:100F500029B1064AD2680243044BDA6004E0034A2E
:100F6000D2688243014BDA607047000000100240F3
:100F700030B500210022002400232D4D6D6805F0BE
:100F80000C0121B1042905D0082923D105E0294D00
:100F9000056022E0274D05601FE0254D6D6805F4D2
:100FA0007012234D6D6805F48034022505EB9242E2
:100FB0001CB9214D554305600BE01D4D6D6805F4CE
:100FC00000351DB11C4D5543056002E0194D5543D8
:100FD000056002E0174D056000BF00BF144D6D684D
:100FE00005F0F0010909154D6B5C0568DD404560B1
:100FF0000F4D6D6805F4E061090A104D6B5C4568A2
:10100000DD4085600A4D6D6805F46051C90A0B4DDD
:101010006B5C4568DD40C560054D6D6805F4404179
:10102000890B074D6B5CC568B5FBF3F5056130BDF9
:101030000010024000127A0000093D006003002009
:1010400070030020704700002DE9FF4781468A4663
:1010500000241AE0204602F0C7FC00220D4BCDE927
:10106000000102F0D5FC074600220B4B02F0F0FA1B
:1010700005460022094B02F0CBFCCDE9020102F04B
:101080006FFC2AF81400601C84B24C45E2DBBDE81A
:10109000FF8700000000F03F00E06F4000FEAF401F
:1010A00010B500F001F810BD0CB5002001900090C3
:1010B0003348006840F480303149086000BF304850
:1010C000006800F4003000900198401C01900098E6
:1010D00018B90198B0F5A06FF1D12948006800F463
:1010E000003010B10120009001E000200090009835
:1010F000012843D12348006840F0100021490860CE
:101100000846006820F0030008600846006840F0C8
:10111000020008601A48406819494860084640685B
:1011200048600846406840F480604860084640686F
:1011300020F47C1048600846406840F4E81048609D
:101140000846006840F08070086000BF0C480068E6
:1011500000F000700028F9D00948406820F0030032
:10116000074948600846406840F00200486000BFF8
:101170000348406800F00C000828F9D10CBD0000BD
:1011800000100240002002407FB505460C460121B8
:101190004807FFF7ADFE6846FFF7BAFB0020019055
:1011A000022003906DB12420009069460020FFF7D3
:1011B00085FB01210020FFF757FB01210020FFF7ED
:1011C00067FB6CB10420009069461020FFF776FBA6
:1011D00001211020FFF748FB01211020FFF758FBE9
:1011E0007FBD0000F0B58BB004460F4615461E4685
:1011F00001210220FFF76CFE6846FFF7B9FB1020C3
:10120000029000010390002004908020059040008F
:101210000690800007904FF44050099000200A90FB
:101220002020089057B10E480090019469460D485F
:10123000FFF780FB01210B48FFF770FB6EB10848F8
:101240000C3000900195694606481430FFF772FB98
:10125000012104481430FFF761FB0BB0F0BD000022
:1012600008740040300402402DE9F04792B08146F6
:101270008A46002447E0A9F1010002F09EFB0746E0
:101280008846204602F0B0FB0022214BCDE9000148
:1012900002F0BEFB3A464346CDE9020102F0D8F91E
:1012A00000224FF08043CDE9040102F0B1FB194A5E
:1012B000194BCDE9060102F0ABFB054600F0FEFF3D
:1012C0004FF06632154BCDE9080102F0A1FB4FF05B
:1012D0006632124BCDE90A0102F00AF90022104BE6
:1012E000CDE90C0102F094FB4FF066320D4BCDE9D5
:1012F0000E0102F0ADF9CDE9100102F031FB2AF840
:101300001400601C84B24C45B5DB12B0BDE8F08718
:101310000000F03F4AD8124DFB2109406666FA3FB3
:1013200000FEAF4066660A4038B505460C4601210E
:101330000420FFF7FDFD10208DF8030003208DF839
:10134000020035B11020ADF8000010210748FFF76A
:10135000E8FB34B12020ADF8000020210348FFF75E
:10136000E0FB69460148FFF746FB38BD0008014035
:101370002DE9FC5F8046894614469A46DDE90CB5A6
:101380002048B0FBF9F080B201901E48B0FBFBF0A2
:1013900080B200901C494FF48070FFF765FF1B4935
:1013A0004FF48070FFF750FE2CB1B8F1000F01D15F
:1013B000154E00E0154E2DB1BAF1000F01D1124FBC
:1013C00000E0124F01210846FFF7AEFF2B462146F1
:1013D000DDE9002000F01EF829462046FFF7D4FE84
:1013E0002B463A4621463046FFF7FCFE1CB1012150
:1013F000880700F0E2F81DB10121054800F0DDF892
:10140000BDE8FC9FA24A040074030020740500207C
:1014100000100040FEB506460C4617461D461CB19E
:1014200001210846FFF764FD1DB101211020FFF7DF
:101430005FFD684600F042F90020ADF80000ADF80D
:101440000600ADF8020054B1B0B2ADF80400694630
:101450000A4800F0E1F82021480600F0D4F85DB118
:10146000B8B2ADF8040069464FF0804000F0D4F8FF
:101470002021024800F0C7F8FEBD00000010004027
:10148000042808D14FF0E021096941F004014FF030
:10149000E022116107E04FF0E021096921F0040129
:1014A0004FF0E022116170477047000010B51348FB
:1014B000006840F001001149086008464068104982
:1014C00008400E494860084600680E4908400B492C
:1014D00008600846006820F48020086008464068DC
:1014E00020F4FE0048604FF41F008860FFF7D8FD2D
:1014F0004FF000600449086010BD00000010024079
:101500000000FFF8FFFFF6FE08ED00E010B54FF019
:101510008040008A00F0010048B10949086980470D
:1015200000204FF0804188844FF47A7088854FF016
:101530008040008A20F001004FF08041088210BDF9
:101540006C0200200EB501210846FFF7D1FC684669
:1015500000F0B4F86420ADF804000020ADF80000FD
:10156000ADF80600ADF8020069464FF0804000F08B
:1015700053F82021480600F046F80121880700F0C2
:101580001CF80EBD10B50121084800F022F858B132
:101590000121064800F00EF80548006808B901204E
:1015A00000E000200249086010BD00000004004077
:1015B00094812142CA430282704721B1028842F0DD
:1015C0000102028004E002884FF6FE731A40028096
:1015D000704730B50246002000230024158A05EA32
:1015E0000103958905EA010413B10CB1012000E063
:1015F000002030BD1AB183890B43838102E08389C7
:101600008B438381704782884FF68F731A408280A4
:1016100082880A4382807047002202881D4B9842CC
:101620000ED01D4B98420BD0B0F1804F08D01B4B11
:10163000984205D01A4B984202D01A4B984204D1D6
:101640004FF68F731A404B881A43174B984207D0B6
:10165000164B984204D04FF6FF431A40CB881A43EA
:1016600002808B8883850B8803850A4B98420BD0B8
:10167000094B984208D00E4B984205D00D4B98422A
:1016800002D00D4B984201D10B7A0386012383824D
:1016900070470000002C014000340140000400406D
:1016A00000080040000C0040001000400014004002
:1016B0000040014000440140004801404FF6FF71E6
:1016C000818000210180C1804180017270477FB517
:1016D00005460C4601210846FFF70AFCADF8085004
:1016E000ADF804400020ADF80A00ADF8060001A9ED
:1016F0004FF08040FFF790FF012241218807FFF75C
:1017000079FF1C208DF8000003208DF801008DF872
:10171000020001208DF803006846FFF795FB0121C8
:101720008807FFF74AFF7FBD10B5FFF72FF9FFF7D6
:1017300009FF10BD10B540F225511D4800F0A5F875
:1017400010B31B4800F05CF9C4B21A48008800F4DA
:101750000040C8B91748008800F4804060B10A2CE6
:1017600003D000201349088020E01248008840F48C
:1017700000401049088019E00D2C06D10D48008862
:1017800040F480400B49088010E00A480088C0F30C
:101790000D0009490C5407480088401C0549088081
:1017A00008460088C72801DD0020088010BD000021
:1017B000003801401C0200207407002021B18289FA
:1017C00042F40052828104E082894DF6FF731A4090
:1017D0008281704710B504462048844209D1012116
:1017E0008803FFF7B5FB00214FF48040FFF7B0FB03
:1017F00032E01B48844209D101214804FFF788FBED
:1018000000214FF40030FFF783FB25E015488442A8
:1018100009D101218804FFF77BFB00214FF48020D0
:10182000FFF776FB18E01048844209D10121C80473
:10183000FFF76EFB00214FF40020FFF769FB0BE080
:101840000A48844208D101210805FFF761FB002105
:101850004FF48010FFF75CFB10BD00000038014022
:101860000044004000480040004C00400050004050
:1018700002460020B1F5007F00D100BF13880B4065
:101880000BB1012000E00020704770B50246002433
:1018900000230025002040F66A16B14200D100BFA7
:1018A000C1F3421501F01F03012606FA03F3012DCF
:1018B00002D19689334006E0022D02D1168A3340C8
:1018C00001E0968A33400C12012606FA04F41688C9
:1018D000344013B10CB1012000E0002070BDF0B520
:1018E0000346002400260025002040F66A17B9426E
:1018F00000D100BF1846C1F3421401F01F060127B2
:1019000007FA06F5012C01D10C3004E0022C01D1BC
:10191000103000E014301AB107682F43076002E06E
:101920000768AF430760F0BD2DE9F04786B0054674
:101930000E460024A24600BFA1460027B08900B190
:1019400000BF2F462C8A4CF6FF700440F0880443F9
:101950002C82AC894EF6F3100440B08831890843DC
:10196000718908430443AC81AC8A4FF6FF400440C0
:10197000B0890443AC8201A8FFF7FAFA1F488742F6
:1019800002D1DDF810A001E0DDF80CA0A88900F478
:10199000004040B10AEBCA0000EB0A103168490070
:1019A000B0FBF1F807E00AEBCA0000EB0A1031685F
:1019B0008900B0FBF1F86420B8FBF0F004012009C5
:1019C000642101FB1089A88900F4004040B1322055
:1019D00000EBC900B0FBF1F000F00700044308E0A1
:1019E000322000EB09106421B0FBF1F000F00F0091
:1019F00004432C8106B0BDE8F087000000380140A8
:101A000001468888C0F308007047C1F3080282804D
:101A1000704700BFFEE7490050EAC12018BF04200C
:101A20004A0D18BF40F0010040F2FF72B2EB515F67
:101A300008BF40F00200012808BF052070470000E1
:101A40002DE9F74F144694B00021C4E9021115990D
:101A5000079121F00045C9498D4206DC1599C4E97A
:101A6000000117B00020BDE8F08FC549DFF814A3CE
:101A7000A9423CDD0799C44E0029C44FC44A1599B8
:101A8000534619DD02F0CEF8554506D0C14AC24B87
:101A900002F0C8F8C4E900010AE04FF0D352BE4B8F
:101AA00002F0C0F832463B4602F0BCF8C4E900013F
:101AB00017B00120BDE8F08F01F01AFD554506D0A2
:101AC000B44AB54B01F014FDC4E900010AE04FF03F
:101AD000D352B14B01F00CFD32463B4601F008FDFC
:101AE000C4E9000117B04FF0FF30BDE8F08FAB49FB
:101AF000A942159978DB21F0004183468846A84A1F
:101B0000A84B01F085FF0022A74B01F0F1FC01F08A
:101B1000F7FE099001F051FF06460F469C4A5346D6
:101B200001F076FF43465A4602F070F880468A4636
:101B3000984A994B3046394601F06AFF2A0D012533
:101B40000B924246534602F061F8032DC4E90001AE
:101B500039D00B98C1F30A51401A05EB45111139E0
:101B6000814230DA9148C346784400EB0510CDF845
:101B70000CA00C90D0E900233046394601F048FF14
:101B800002460B46049106905846039902F04AF823
:101B900080468A4602460B465846039902F042F8B0
:101BA000049B069A02F03EF883460C98039139464E
:101BB000D0E90223304601F02BFF5A46039B02F086
:101BC00031F86D1CBDE707980028A2BF099817B02F
:101BD000BDE8F08F616881F000416160099817B03D
:101BE0004042BDE8F08FFFE784461598C1F313012A
:101BF000C0F30A50A0F2F5304FEA601800F01F065B
:101C0000C6F12000139000200690079041F4801E3A
:101C100005206D4676B1664A08EB00017A4452F819
:101C2000213002EB8101B3404A68139922FA01F195
:101C3000194305E05F4908EB0002794451F822108E
:101C4000A1FB0E27A1FB0C131A449A4234BF0123B7
:101C5000002303EB070A05EB8003D3E901B70F4428
:101C60008F4234BF0121002193448B4411B193452D
:101C700002D903E0934501D2012100E00021C3E92C
:101C800001B7514445F82010011EA0F10100C1DC4C
:101C90000298059F00F10050800F12900298DDE934
:101CA0000356800001F089FE834628460D9101F01D
:101CB0009BFE6FF01D0202F0D1F8CDE90E01304617
:101CC00001F092FE6FF03D0202F0C8F880468A46AD
:101CD000384601F089FE6FF05D0202F0BFF807465A
:101CE00042465346119101F003FCDDE90E2301F059
:101CF000FFFB5A460D9B01F0FBFB00250E465A46A2
:101D000028460D9B01F08EFFDDE90E2301F08AFFCE
:101D10004246534601F086FF3A46119B01F076FF9A
:101D2000DFF898A0244A534601F072FE0746884621
:101D3000234A244B3146284601F06AFE3A46434680
:101D400001F0D6FB074688464FF0A842534631467D
:101D5000284601F05DFE3A46434601F0C9FB159A5C
:101D600012F0004F04D0129A81F0004152421292B8
:101D7000C4E90001129817B0BDE8F08FFB21E93FDC
:101D80007CD90240FB21F93F7370032E8A19A33BD3
:101D9000000040543163621A61B4D03DFB213941E7
:101DA00083C8C96D305FE43F0000E03FEC230000D2
:101DB000682300004A230000182D4454FB21F93DFC
:101DC0003326A611460B113C2DE9FF4D21F00048AA
:101DD00007460C46B8F1795F08DA01F091FD00285A
:101DE00001BF0020324904B0BDE8F08D3A462346D9
:101DF0001046194601F00CFE054602462D480E46D7
:101E00000B460621784400F05DF82A46334601F07F
:101E1000FFFDDDE9022382468B463846214601F06C
:101E2000F7FD04460F4652465B462846314601F010
:101E3000EFFD22463B4601F0F5FE07468A464FF08D
:101E4000FF322846314602F009F81B4A90450ADA6B
:101E50003A46534601F0E6FE04B00022BDE8F04DDC
:101E6000134B01F0D3BE154A4245A8BFA8F5001593
:101E70004FF00004B8BF124D22462B4601F0D2FEAF
:101E80000646884622462B460020094901F0CAFE34
:101E900004460D463A4653463046414601F0C2FEDE
:101EA00004B022462B46BDE8F04D01F0AFBE000065
:101EB0000000F03F202100003333D33F0000E93F12
:101EC0000000D23F2DE9F0414F1E00EBC701044650
:101ED000D1E9000115461E4637F006020DD02A460C
:101EE000334601F095FD7F1E04EBC703D3E90023C1
:101EF00001F0FEFA37F00602F1D1022F25D0042FAF
:101F000013D0062F18BFBDE8F0812A46334601F0F2
:101F10007FFDD4E90A2301F0EBFA2A46334601F0AB
:101F200077FDD4E9082301F0E3FA2A46334601F0AD
:101F30006FFDD4E9062301F0DBFA2A46334601F0AF
:101F400067FDD4E9042301F0D3FA2A46334601F0B1
:101F50005FFDD4E9022301F0CBFA2A46334601F0B3
:101F600057FDD4E90023BDE8F04101F0C1BA0000FB
:101F70002DE9FF4D054621F0004084B00C46B0F13C
:101F8000795F0BDA2846FFF746FD042808BF00F00A
:101F90006FF8284608B02146BDE8F08D2A460B466A
:101FA000104601F035FD06460F462A46234601F04D
:101FB0002FFD804626488A4632463B460521784416
:101FC000FFF780FF83461098029160B3214A224BAD
:101FD0004046514601F01CFDCDE900015A464046FD
:101FE0005146029B01F014FD82468846DDE9060158
:101FF0004FF0FF3201F032FF5246434601F012FE2D
:1020000032463B4601F004FDDDE9062301F00AFEFD
:10201000DDE9002301F006FE08B02A462346BDE8AC
:10202000F04D01F0F3BD0B465A463046394601F0FB
:10203000EFFC084A084B01F05BFA4246534601F0B8
:10204000E7FC08B02A462346BDE8F04D01F050BA3F
:102050005E200000495555555555C5BF012201F078
:10206000FDBE002213461046114601F0F1BA0000F1
:10207000024A0020110701F0F1BE000001FDFFFF40
:1020800030380A2801D201207047002070470146ED
:1020900000BF704710B56FF00400FFF7F1F90A4870
:1020A00000680A49B0FBF1F0094908700846007859
:1020B00000EB4001C1EBC0104FF6FF7101EAC00018
:1020C0000449088010BD00000000002000127A00C2
:1020D00014020020160200200146114A12884A43C9
:1020E0004FF0E0235A6100229A611A46126942F0C9
:1020F00001021A6100BF4FF0E022106900F00102F6
:102100001AB100F48032002AF5D04FF0E0221269B3
:1021100022F001024FF0E0231A6100229A61704719
:10212000160200200146114A12784A434FF0E0237C
:102130005A6100229A611A46126942F001021A613C
:1021400000BF4FF0E022106900F001021AB100F464
:102150008032002AF5D04FF0E022126922F001020D
:102160004FF0E0231A6100229A61704714020020A8
:1021700000BF054A128802F04002002AF9D0C2B21C
:10218000014B1B1D1A8070470038014010B5FFF746
:1021900081FFFEF752FE4FF4165000F0DFF8FEF715
:1021A00023FEFEF743FBFEF701FE10BD1CB5002425
:1021B000FFF7ECFF4CE0641C6420FFF78DFF25481F
:1021C000006830B9022C04D10120224908600024A3
:1021D00008E02048006828B1022C03D100201D49E6
:1021E0000860002410211C48FEF790FC20B900F084
:1021F0003DF8C820FFF770FF08211748FEF786FC5E
:1022000050B900211548FEF789FB0021134814300E
:10221000FEF784FBFFF788FA04210F48FEF776FCEF
:1022200040B90120C82103460246CDE90010002034
:10223000FFF79EF801210A48FEF768FC012807D144
:10224000642103460246CDE900100020FFF790F814
:10225000B1E700009481214200180140300402409F
:1022600000080140014608687047000070B500266C
:1022700000241BE00F4901EBC410FEF781F9C6B240
:1022800000250FE00B4800EBC410415D0A48FFF742
:10229000BCFB00BF40210848FFF7EAFA0128F9D14A
:1022A000681CC5B2B542EDDB601CC4B2032CE1DB97
:1022B00070BD0000140000200038014000B5254B1F
:1022C00021F0004287B09A4203DC002213460092BC
:1022D0002BE0214B9A4208D140B94FF00100FEF7A4
:1022E00077F9FFF7BEFE07B000BD03DBFFF7B6FED0
:1022F00007B000BD02AAFFF7A3FB10F003014FF0E7
:1023000001000DD0012914D002291AD00DF1080CBA
:102310009CE80F00FFF758FD07B081F0004100BDB9
:102320000DF1080C00909CE80F00FFF721FE07B0AC
:1023300000BD0DF1080C9CE80F00FFF745FD07B04C
:1023400000BD0DF1080C00909CE80F00FFF710FE97
:10235000E2E70000FB21E93F0000F07F10B586B006
:102360000446012144F20400FEF7E2FD2348FFF792
:1023700031FA4FF40070ADF8140003208DF8160008
:1023800018208DF8170005A91D48FEF734FB4FF4FF
:102390008060ADF8140004208DF8170005A91848D6
:1023A000FEF729FB25208DF8000003208DF80100A1
:1023B0008DF8020001208DF803006846FEF744FD09
:1023C00001940020ADF80800ADF80A00ADF80C004B
:1023D000ADF810000C20ADF80E0001A90748FFF77A
:1023E000A3FA012240F225510448FFF778FA0121AF
:1023F0000248FFF7E3F906B010BD000000380140C5
:102400000008014030B595B0054613AB12AA09A9E2
:10241000284600F039FA044614B1204615B030BD04
:102420000020149026E0224909689DF8502001EB15
:10243000C20113AB11AA486801A900F025FA0446AD
:102440000CB12046EAE709A901A800F0B5FC60B983
:102450009DF844009DF84810884201DD0220DDE728
:102460009DF85000124988750AE09DF85000401C04
:10247000C0B214900E48007D9DF850108842D2DC06
:1024800000BF0B48007D9DF85010884201D1042008
:10249000C4E714A9284600F0D7FA04460CB1204638
:1024A000BCE79DF85000024948750020B6E70000DF
:1024B0006C0200202DE9F0419AB09C48847D007D9B
:1024C000A04202DC1AB0BDE8F0819849096801EB2E
:1024D000C40106AB07AA486808A900F0D5F908A905
:1024E00093A0FDF7C5FE002644E09048008B012133
:1024F000B1400840D8B122218FA0FDF7B9FE304687
:1025000000F028FB89492431471839468BA0FDF794
:10251000AFFE222188A0FDF7ABFE304600F01AFB8B
:1025200082492431084410A941F8260018E03046B9
:1025300000F010FB7D492431085810A941F826000D
:102540007A48C07D30B910A850F826107CA0FDF75D
:102550008FFE05E010A850F826107AA0FDF788FE3F
:102560009DF81C00401EB04202D078A0FDF780FE0E
:10257000701CC6B29DF81C008642B6DB74A0FDF745
:1025800077FE00F037FB6948407D0B280DD2DFE86D
:1025900000F0060D151E27323F4E5F72870063491B
:1025A000096851F834008047054690E05F4A126898
:1025B00052F8341010988847054688E05B4B1B683A
:1025C00053F83420DDE91001904705467FE0574F6E
:1025D0003F6857F8343010A807C89847054676E09A
:1025E000DFF848C1DCF800C05CF8347010A80FC8F0
:1025F000B84705466BE01498DFF830C10090DCF86E
:1026000000C05CF8347010A80FC8B84705465EE0FB
:10261000DDE91401DFF814C1CDE90001DCF800C0E8
:102620005CF8347010A80FC8B84705464FE0DDE9E4
:1026300014121698DFF8F4C0CDE900120290DCF80D
:1026400000C05CF8347010A80FC8B84705463EE0DB
:10265000DDE91423DDE91610DFF8D0C0CDE9002351
:10266000CDE90210DCF800C05CF8347010A80FC887
:10267000B84705462BE0DDE91523DDE91710CDE964
:102680000123CDE903101498DFF8A0C00090DCF816
:1026900000C05CF8347010A80FC8B847054616E0B3
:1026A000DDE91623DDE91810CDE90223CDE9041098
:1026B000DDE91401DFF874C0CDE90001DCF800C0E9
:1026C0005CF8347010A80FC8B847054600BF00BFBB
:1026D00000F050FA9DF8180001280CD11348C07D75
:1026E00020B929461BA0FDF7C3FD07E029461BA022
:1026F000FDF7BEFD02E018A0FDF7BAFD0B4890F80B
:10270000EC0088B10948D0F8F0000A21B0FBF1F2E2
:1027100001FB12070548D0F8F000B0FBF1F83A468B
:10272000414611A0FDF7A4FD00BFCBE66C020020DE
:102730000D0A2573280000002563000025730000A2
:10274000256C750030582558000000002C00000052
:10275000290000003D256C753B0D0A003D305825D1
:10276000583B0D0A0000000046756E6374696F6E79
:102770002052756E2054696D653A25642E253164AA
:102780006D730D0A00000000F0B5034615460020E9
:1027900000220026002455E01F782C2F01D104B917
:1027A00001221F78292F01D01F780FB904B94AE000
:1027B000002E34D11F78302F02DB1F78392F11DD26
:1027C0001F78612F02DB1F78662F0BDD1F78412FEA
:1027D00002DB1F78462F05DD1F78582F02D01F78A7
:1027E000782F0CD102B12EE01F78612F03DB1F7808
:1027F000203F0F7001E01F780F70491C1FE01F7809
:10280000222F04D102B11EE00126012417E01F7817
:10281000202F14D01F782C2F11D0FF2613E01F7803
:10282000222F00D1002402B10DE044B11F785C2FAB
:1028300002D15B1C471CF8B21F780F70491C471C63
:10284000F8B25B1CA8E700BF00270F702E70F0BD28
:1028500010B50446002010700BE020780870641C4E
:10286000491C1078401C10701078984201DB012040
:1028700010BD2078202802D020780028EDD100203B
:10288000087000BFF4E700002DE9FF4F85B08046D7
:1028900089460027002004900390012002904FF009
:1028A000000B002544461DE02078202816D005F0B6
:1028B0007F00052812DA0DB945F0800505F07F008C
:1028C000042803D120782A2800D00EE0207805F0D3
:1028D0007F010DF80100681CC5B202E0852D00D112
:1028E00003E0641C20780028DED100BF8DB10020F9
:1028F00005F07F010DF8010051A1684600F05CFA77
:1029000018B900210898017002E0012108980170AF
:1029100000254FF0000A444614E0641C0AF101004F
:1029200000F0FF0A2078202802D020782A2809D138
:10293000204600F0D1F90646282E03D02A2E01D0D9
:10294000CDF810A02078282802D020780028E4D1E3
:102950004446049810B10498401C04444FF0000A07
:10296000002654E0207810B94FF0010A50E020789A
:10297000282803D116B9781CC7B213E0207829287B
:1029800008D13EB917B1781EC7B201E04FF0010A75
:1029900047B93DE02078222804D10EB9012000E09B
:1029A0000020064647B9207820282FD0207889F8C3
:1029B000000009F1010929E020782C2804D1012028
:1029C0000290681CC5B214E02078202811D020782D
:1029D00028280ED04DB9BBF1050F06DA20780DF886
:1029E0000B000BF1010000F0FF0B0298401CC0B27D
:1029F0000290012F0AD10298022807D10298401CA8
:102A0000C0B202900398401CC0B20390641CA9E7B6
:102A100000BF0398012809D100200DF80B0008A180
:102A2000684600F0C9F908B9002003900799039897
:102A30000870002089F80000504609B0BDE8F08F0A
:102A4000766F6964000000002DE9F043B5B00546DB
:102A50000F460024002604E000213D488155701CEB
:102A6000C6B20A2EF8DB06E06D1C287818B90120E2
:102A700035B0BDE8F08328782828F5D16D1C61E0D9
:102A800034AA69462846FFF77FFE064635449DF87E
:102A9000D00020B1012827D0FF284CD149E09DF873
:102AA000000000B333A9684600F021F906460EB1D4
:102AB0000220DDE7204600F04DF825490A31339A1F
:102AC0000A50A1F12400008B0121A1408843204934
:102AD0001A39088304211E480155601CC4B20A2C0F
:102AE00001DD0320C4E726E0684600F081F9401CC0
:102AF00000F0FF08204600F02DF815490A3100EBE0
:102B000001094946684600F068F911481A38018BF6
:102B10000120A040014388B20D491A3908830C48AE
:102B200000F80480601CC4B20A2C01DD03209FE77A
:102B300001E002209CE700BF2878292801D02878EE
:102B400000B900E09CE700BF3C70002090E7000067
:102B50008602002002460020002105E0044B5B5C59
:102B60000344D8B24B1CD9B29142F7DB7047000046
:102B7000860200204FF08040008A00F0010040B142
:102B80000B48D0F8F0004FF6FF7108440849C1F82F
:102B9000F0000748D0F8F0004FF08041898C0844DD
:102BA0000349C1F8F0000846D0F8F0007047000073
:102BB0006C02002010B5044604EBC40000EB0410C6
:102BC0000122C2EB800081B24FF47A70FEF77FFDE4
:102BD00001200149C87510BD6C02002010B50246E5
:102BE000012000E050430B1EA1F10104E1B2F9D134
:102BF00010BD00004FF08040008A20F001004FF02F
:102C0000804108824FF6FF70888500208884024941
:102C1000C1F8F000704700006C02002070B51D483C
:102C2000008800F40040002833D01A4805780020BE
:102C300019494855194881681748884704461CB9FE
:102C40001649C868804721E0134800F0DDF80546C2
:102C5000012D00D02C46CCB1012C06D0022C08D07E
:102C6000032C0AD0042C10D10BE00DA0FDF700FBC3
:102C70000BE00EA0FDF7FCFA07E00FA0FDF7F8FA55
:102C800003E010A0FDF7F4FA00BF00BF00200149E7
:102C9000088070BD1C020020740700206C02002018
:102CA000BAAFCAFDB4EDCEF3210D0A00B2CECAFD13
:102CB000B4EDCEF3210D0A00B2CECAFDCCABB6E026
:102CC000210D0A00CEB4D5D2B5BDC6A5C5E4B5C4A4
:102CD000BAAFCAFD210D0A000146491C00E0491C9B
:102CE0000878202801D10029F9D1087870472DE90A
:102CF000F04307460E4600254FF00A083C460020E8
:102D000030601FE02078392802DC207830280ADA89
:102D10002078462802DC2078412804DA20785828D8
:102D200009D1012D07D12078412801DB4FF010088F
:102D3000681CC5B205E0207800B904E00120BDE8B8
:102D4000F083641CDEE700BF3C46B8F1100F0FD1E2
:102D5000032D01DA0220F2E72078302806D16078CE
:102D6000582803D1A41CA81EC5B204E00320E6E73E
:102D70000DB90420E3E71BE00DB1681EC5B2207851
:102D8000392806DC2078302803DB2078A0F13009D0
:102D900002E02078A0F1370929464046FFF71EFFE0
:102DA000316809FB00103060641C207800B900E035
:102DB000E2E700BF0020C2E702460AE010780B7885
:102DC000984201D001207047107800B902E0521CEF
:102DD000491CF3E700BF0020F5E706E002780A701F
:102DE000027802B902E0401C491CF7E700BF7047B7
:102DF0000146002005E00A7802B903E0421CD0B287
:102E0000491CF8E700BF704710B58CB004461E237C
:102E10000BAA03A92046FFF71BFD0090009810B1F4
:102E200001200CB010BD9DF82C00044400200B9034
:102E30000EE040489DF82C2050F8221003A8FFF720
:102E4000BBFF00B908E09DF82C00401CC0B20B90FD
:102E50009DF82C000728ECD300BF9DF82C00072814
:102E600063D2DFE800F004053C5E6564630000BFE8
:102E700031A0FDF7FDF931A0FDF7FAF93FA0FDF70C
:102E8000F7F94EA0FDF7F4F95CA0FDF7F1F96BA09E
:102E9000FDF7EEF979A0FDF7EBF986A0FDF7E8F96B
:102EA0008BA0FDF7E5F990A0FDF7E2F994A0FDF7FE
:102EB000DFF999A0FDF7DCF99EA0FDF7D9F9A4A0F0
:102EC000FDF7D6F9B0A0FDF7D3F9BDA0FDF7D0F915
:102ED000C8A0FDF7CDF9D4A0FDF7CAF99AE216A073
:102EE000FDF7C6F9E0A0FDF7C3F900200B900EE056
:102EF000ED4800689DF82C2000EBC2004168EBA073
:102F0000FDF7B6F99DF82C00401CC0B20B90E648C6
:102F1000007D9DF82C108842EADC07A0FDF7A8F997
:102F200078E205A0FDF7A4F9C4E171E245E219E2F7
:102F3000ECE10000200200200D0A00002D2D2D2DB7
:102F40002D2D2D2D2D2D2D2D2D2D2D2D2D2D2D2DB1
:102F50002D2D2D2D55534D4152542056332E312DAC
:102F60002D2D2D2D2D2D2D2D2D2D2D2D2D2D2D2D91
:102F70002D2D2D2D2D2D2D200D0A0000202020205F
:102F800055534D415254CAC7D3C9414C49454E547B
:102F9000454BBFAAB7A2B5C4D2BBB8F6C1E9C7C9F1
:102FA000B5C4B4AEBFDAB5F7CAD4BBA5BDBBD7E9CB
:102FB000BCFE2CCDA8B9FD200D0A0000CBFC2CC412
:102FC000E3BFC9D2D4CDA8B9FDB4AEBFDAD6FACA30
:102FD000D6B5F7D3C3B3CCD0F2C0EFC3E6B5C4C8FF
:102FE000CEBACEBAAFCAFD2CB2A2D6B4D0D02ED2B1
:102FF000F2B4CB2CC4E3BFC90D0A0000D2D4CBE697
:10300000D2E2B8FCB8C4BAAFCAFDB5C4CAE4C8EBD2
:10301000B2CECAFD28D6A7B3D6CAFDD7D62831303E
:103020002F3136BDF8D6C629A1A2D7D6B7FBB4AE8C
:10303000A1A2BAAFCAFDC8EB0D0A0000BFDAB5D82D
:10304000D6B7B5C8D7F7CEAAB2CECAFD292CB5A53A
:10305000B8F6BAAFCAFDD7EEB6E0D6A7B3D63130D0
:10306000B8F6CAE4C8EBB2CECAFD2CB2A2D6A7B35A
:10307000D6BAAFCAFDB7B5200D0A0000BBD8D6B589
:10308000CFD4CABE2ED0C2D4F6B2CECAFDCFD4CAD7
:10309000BEBDF8D6C6C9E8D6C3B9A6C4DC2CD0C21A
:1030A000D4F6BDF8D6C6D7AABBBBB9A6C4DC2E0DD4
:1030B0000A000000BCBCCAF5D6A7B3D63A7777772A
:1030C0002E6F70656E6564762E636F6D0D0A00005D
:1030D00055534D415254D3D037B8F6CFB5CDB3C3C5
:1030E000FCC1EE3A0D0A00003F3A202020202020AB
:1030F000BBF1C8A1B0EFD6FAD0C5CFA20D0A00002F
:1031000068656C703A202020BBF1C8A1B0EFD6FAF8
:10311000D0C5CFA20D0A00006C6973743A2020203C
:10312000BFC9D3C3B5C4BAAFCAFDC1D0B1ED0D0A92
:103130000A00000069643A2020202020BFC9D3C3C0
:10314000BAAFCAFDB5C44944C1D0B1ED0D0A0A00F9
:103150006865783A20202020B2CECAFD3136BDF80D
:10316000D6C6CFD4CABE2CBAF3B8FABFD5B8F12BA5
:10317000CAFDD7D6BCB4D6B4D0D0BDF8D6C6D7AA6F
:10318000BBBB0D0A0A0000006465633A20202020C2
:10319000B2CECAFD3130BDF8D6C6CFD4CABE2CBA25
:1031A000F3B8FABFD5B8F12BCAFDD7D6BCB4D6B4A4
:1031B000D0D0BDF8D6C6D7AABBBB0D0A0A00000006
:1031C00072756E74696D653A312CBFAAC6F4BAAFD8
:1031D000CAFDD4CBD0D0BCC6CAB13B302CB9D8B113
:1031E000D5BAAFCAFDD4CBD0D0BCC6CAB13B0D0A4C
:1031F0000A000000C7EBB0B4D5D5B3CCD0F2B1E033
:10320000D0B4B8F1CABDCAE4C8EBBAAFCAFDC3FBBB
:10321000BCB0B2CECAFDB2A2D2D4BBD8B3B5BCFC4E
:10322000BDE1CAF82E0D0A002D2D2D2D2D2D2D2D91
:103230002D2D2D2D2D2D2D2D2D2D2D2D2D2D2D2DBE
:103240002D2D414C49454E54454B2D2D2D2D2D2DC9
:103250002D2D2D2D2D2D2D2D2D2D2D2D2D2D2D2D9E
:103260002D2D2D200D0A00002D2D2D2D2D2D2D2D38
:103270002D2D2D2D2D2D2D2D2D2D2D2D2D2D2D2D7E
:103280002DBAAFCAFDC7E5B5A52D2D2D2D2D2D2DA0
:103290002D2D2D2D2D2D2D2D2D2D2D2D2D2D2D2D5E
:1032A0002D2D2D2D200D0A006C02002025730D0AF6
:1032B0000000000059A0FCF7DBFF00200B901AE093
:1032C000664909689DF82C2001EBC20101AB02AAF6
:1032D000486803A9FFF7D8FA604800689DF82C10E9
:1032E00050F8312003A95EA0FCF7C2FF9DF82C0026
:1032F000401CC0B20B905948007D9DF82C108842AC
:10330000DEDCAFF2CC30FCF7B3FF83E0AFF2D830B5
:10331000FCF7AEFF0BAA03A92046FFF735FA9DF88C
:103320002C00C8B9694603A8FFF7E1FC0B909DF893
:103330002C0020B94FA00099FCF79AFF0EE09DF8F1
:103340002C00042801D002206BE54DA0FCF790FF73
:1033500001204249C87501E0022062E547A0FCF760
:1033600087FF57E045A0FCF783FF0BAA03A920467F
:10337000FFF70AFA9DF82C00C8B9694603A8FFF7C1
:10338000B6FC0B909DF82C0020B942A00099FCF7E8
:103390006FFF0EE09DF82C00042801D0022040E5CC
:1033A0003FA0FCF765FF00202C49C87501E0022012
:1033B00037E532A0FCF75CFF2CE030A0FCF758FFAB
:1033C0000BAA03A92046FFF7DFF99DF82C00C8B926
:1033D000694603A8FFF78BFC0B909DF82C0078B989
:1033E0001E49009881F8EC00084690F8EC0018B1EE
:1033F00030A0FCF73DFF07E035A0FCF739FF03E004
:1034000002200EE502200CE51CA0FCF731FF01E0D4
:10341000012006E500BF002003E500002D2D2D2D25
:103420002D2D2D2D2D2D2D2D2D2D2D2D2D2D2D2DCC
:103430002D2D2D2D2DBAAFCAFD204944202D2D2D27
:103440002D2D2D2D2D2D2D2D2D2D2D2D2D2D2D2DAC
:103450002D2D2D2D2D2D2D2D200D0A006C0200203F
:1034600025732069642069733A0D0A305825303875
:10347000580D0A004845583A305825580D0A0000A2
:103480003136BDF8D6C6B2CECAFDCFD4CABE210DE4
:103490000A0000004445433A256C750D0A000000FF
:1034A0003130BDF8D6C6B2CECAFDCFD4CABE210DCA
:1034B0000A00000052756E2054696D652043616CEE
:1034C00063756C6174696F6E204F4E0D0A000000C9
:1034D00052756E2054696D652043616C63756C6133
:1034E00074696F6E204F46460D0A000001607047F8
:1034F00010B591EA030F48BF83F0004300F19A83AF
:10350000841A71EB030C05D2121943EB0C03001B58
:1035100061EB0C01DFF824E14FEA1154A4EB135CDA
:103520001EEA430F18BF9EEA445F73D023EA0E03DE
:10353000DCF1200E21EA045143F4801332D322FA45
:103540000CFE10EB0E0023FA0CFE41EB0E01CCF149
:10355000200E03FA0EFE10EB0E0051F10001B1F542
:10356000801FCCF1200E32D201EB045112FA0EF280
:10357000BDE8104058BF7047401C38BF5FEA4202A8
:1035800018BF7047002814BF20F0010041F100016E
:103590004FEA410313F5001F38BF7047A1F1C04146
:1035A00000F02EBB012A43EB0302ACF1200CDCF14E
:1035B0001F0E32BF4FF0000E23FA0CF310EB030086
:1035C00041EB0451B4EB115FD0D0A1EB045101F5F4
:1035D000801149085FEA300001EB04510ED350F12D
:1035E000000038BF12FA0EFE08D1BDE81040C9E74E
:1035F000401C38BF5FEA4202CAD1C3E7BDE81040B1
:103600004FEA410313F5001F38BF7047A1F1C041D5
:1036100000F0F6BA9EEA445F08D011EA5E0FBDE8FA
:10362000104004BF01F0004100207047BDE8104089
:1036300070B500F097FA00BF64FBBE3E0000E0FFEB
:1036400002494FF0000000F0D7BB00BF0000F87F38
:103650002DE9C04130B4DFF8A0C23CEA111418BF14
:103660003CEA131400F0EC8081EA03051CEA111413
:1036700044EAD57418BF1CEA131500F0C780A4EB08
:1036800005044FF0004545EAC12145EAC32341EA5C
:10369000505143EA525304F17F74994204F50034C7
:1036A0004FEAC0204FEAC22208BF904200F09C803F
:1036B0004FEA13650FF24016765D4FEA134506FB9D
:1036C00005F7C7F1807706FB07F74FEAD737A7FB67
:1036D00003687642C8F58038A7FB06CE38BFA8F14C
:1036E000010807FB08E64FF0000EA6FB028CE6FB84
:1036F00003CEDCF1000CCEF1004E38BFAEF1010E6E
:10370000A6FB0C584FF000074FF00005E6FB0E87B4
:10371000A1FB08C6A0FB07CE16EB0E0645F100057F
:10372000E1FB076515F1E04E7EBFA4F580345FEA4A
:1037300046066D4116F1800745F100054FEA17274F
:103740004FEA066647EA0567A6F1DE46B6F1805FF6
:103750004FEA15251FD9384624F0010C05EBC4713A
:10376000BCF1FE6F01EB0C1102D8F0BCBDE800818A
:1037700024425CBF01F5801E9EEAC47F02D4F0BCE7
:10378000BDE80081244238D4F0BCA1F1C041BDE8BD
:10379000004100F035BA4FEAD22242EA43524FEAE2
:1037A000D323A7FB02864FEAD02040EA415007FB13
:1037B00003661EEA0E0F4FEAD12105FB026658BFD1
:1037C000A6EB0056B6EB00564FEA520E4EEAC37E09
:1037D00018EB0E0E56EB530EBDD518EB02085E41EA
:1037E0007F1C55F10005B6E74FF480154FF0000738
:1037F0004FF000064FF00008ADE7F0BC4FF00000BE
:1038000001F1C04101F00041BDE8008111EA0C1F47
:103810000CEA131500D00CE013EA0C1F00F0258011
:103820004FF00000F0BC81EA030101F00041BDE867
:103830000081F0BCBDE8004181EA030100F0E0B97D
:10384000F0BCBDE8004170B500F08CF9097EFC3E8B
:1038500000F007B881EA03014FF0000001F00041D9
:10386000704781EA030100F0CBB9F0BCBDE800412C
:103870004FF0000021497047FFFDFBF9F7F5F4F226
:10388000F0EEEDEBE9E8E6E4E3E1E0DEDDDBDAD8FB
:10389000D7D5D4D3D1D0CFCDCCCBCAC8C7C6C5C459
:1038A000C2C1C0BFBEBDBCBBBAB9B8B7B6B5B4B370
:1038B000B2B1B0AFAEADACABAAA9A8A8A7A6A5A45B
:1038C000A3A3A2A1A09F9F9E9D9C9C9B9A9999981F
:1038D0009797969595949393929191908F8F8E8EC2
:1038E0008D8C8C8B8B8A898988888787868585844F
:1038F00084838382828181800000FF070000F87F3B
:103900004FEA41034FEA5353A3F58063D3F11E03FB
:10391000C8BFD3F1210C0CDD4FF0004242EAC122B6
:1039200042EA505232FA03FC8CEAE17CACEBE170E3
:103930007047102BC4BF0020704703F5787CBCF1A2
:10394000FF3F04D06FF0004282EA2100704770B55B
:1039500000F008F94992248000207047F2E7000047
:103960004FEA1153A3F58063D3F11E03A8BFD3F12F
:10397000200C08DB4FF0004242EAC12252EA5052CA
:1039800032FA03F0704709420BD4102BC4BF002059
:10399000704703F5787CBCF1FF3F05D04FF0FF3056
:1039A00070474FF00000704770B500F0DBF800BFC3
:1039B0004992248000207047F0E710F0004248BF91
:1039C0004042B0FA80F310FA03F10AD0C3F11D03AC
:1039D00003F580634FEA415002EB035202EBD12121
:1039E00070474FF000007047B0FA80F310FA03F10F
:1039F0000AD0C3F11D0303F580634FEA41504FEA3B
:103A0000035202EBD12170474FF0000070470000D5
:103A1000DFF848C170B51CEA111E1EBF1CEA131561
:103A20009EEA0C0F95EA0C0F00F06F8081EA030408
:103A300023EA4C134EEAD47E21EA4C1141F4801162
:103A400043F48013AE44A1FB024CA0FB0365AEF12E
:103A50007F7E361955EB0C05A1FB034C4CF100039E
:103A6000A0FB021C16EB0C06654153F10003094252
:103A700018BF46F0010613F4007F0BD14FEA033163
:103A80004FEA0530340341EA155140EA16506FF011
:103A900003020AE04FEAC3214FEAC520F40241EADB
:103AA000555140EA56506FF0020202EB2E4201EBF4
:103AB000025585EACE710AD05FEA440C18BF24F0A3
:103AC000004450F1000041F1000120EAD47040F2BE
:103AD000FE7C624500D270BDA84214BF4FF0804406
:103AE0004FF04044002E08BF0024BEF1806FA8BFF5
:103AF000A1F1C041BDE8704080F282804FF000002B
:103B000001F1C04101F0004170479EEA0C0F0CEA40
:103B1000131518BF95EA0C0F06D04FF0000081EA8C
:103B2000030E0EF0004170BD00F01CF88900013E4C
:103B300000F007B800F009B84FEA430C5FEA5C5C9C
:103B400008D081EA030100F05BB84FEA410C5FEA5C
:103B50005C5CF6D14FF00000014970470000FF07A0
:103B60000000F87F0EF1020E2EF0030E5EF8046BDB
:103B7000364205D4012A43EB030515F5001F12D880
:103B8000012841EB010C1CF5001F0CD80ED14FEAA7
:103B9000D17C15F5001F0CEB4C0C0CF1020C08BF8E
:103BA0004CEBD37C04E04FF0080C01E04FEAD37CEF
:103BB0000CEB4C0526FA05F606F00706B6F1040CE8
:103BC00006D20EEB860CBDE870404CF0010C60474D
:103BD000DFE80CF0090B02024FF000414FF000004B
:103BE000A1F5002170BD19461046012851EB0104D2
:103BF00018BFD4F5001484BF002001F0004170BD4F
:103C00000808A0F500114FEA3101704791EA030F4F
:103C100010B581F000413FF573AC83F0004300F034
:103C200009B8000010B591EA030F48BF83F00043C4
:103C30003FF566AC841A71EB030C07D212198CF0B5
:103C4000004C43EB0C03001B61EB0C01DFF8A4E11B
:103C50004FEA1154A4EB135C1EEA430F18BF9EEA0F
:103C6000445F00F0B08023EA6E03524221EA04511F
:103C7000C3EB6E0338BF5B1EDCF1200E25D322FAA6
:103C80000CFE10EB0E0043FA0CFE41EB0E01CCF1E2
:103C9000200E03FA0EFE10EB0E0051F10001CCF1E4
:103CA000200E29D412FA0EF201EB0451BDE81040A7
:103CB00058BF7047401C1CBFB2F1004F704700282E
:103CC0000CBF491C20F00100704712EB020E43EBC1
:103CD000030218BF4FF0010E4EEA4202ACF1200C75
:103CE000DCF11E0E54D943FA0CFE10EB0E0051F11C
:103CF000FF31CCF11E0ED5D50EF1010E12FA0EFEDB
:103D0000404141EB010101EB445C5FEA5C5C10D98E
:103D100010EBDE7001EB045138BFBEF1004FBDE87F
:103D2000104018BF704700280CBF491C20F001004C
:103D3000704730D24FEAD42C11F5001124F40064FE
:103D40001BD0B1FA81F20B3AA41AA41ED2F12003BF
:103D5000914030FA03F31943904001EBCC71002CF1
:103D600001EB0451BDE81040A8BF704701F1C0410C
:103D70004FF0000001F000417047B0FA80F310FAF4
:103D800003F100D110BDE41A173C4805C90AE4E765
:103D900001EB045110BD491001EB0451BDE8104086
:103DA0004FEA300002E04FF0000170474A0008BFC0
:103DB0000042F8D0B2F5001F28BF704701F0004163
:103DC0004FF0000070479EEA445F07D011EA5E0F93
:103DD000BDE8104004BF002100207047BDE810403E
:103DE00070B5FFF7BFFE00BF40DFF63E83F0004135
:103DF000104670470000E0FF0CF00F03092B08BFCE
:103E0000082000F059800A2B0BD0082B18BF7047F0
:103E100008BF1CF0400F0AD04FF000004FF0000127
:103E200070471CF0400F18BF4FF0004070471CF067
:103E3000100F08D020F0704300F07F4242EAD30117
:103E40004FEA4370704700F0604021F07F4242EA41
:103E5000000201F07F4040EA727070474FF0FF0CA3
:103E60004CF4E06C1CEA11531CBF9CEA030C944513
:103E7000C2BFDA4201EB02517047002B0DD0BCF1FA
:103E8000000F0FD0002A01F00041A4BF41F0E04133
:103E900041F07F614FF00000704701F000414FF0AA
:103EA0000000704750EA01334FF09B0C18BF4CF0F4
:103EB000806C7FF4C5AB70471CF4801F11D01CF4DC
:103EC000E02F03D06FEACC31490070474FF04050EB
:103ED000EFF3008222F0704242EA000282F300888F
:103EE00070474FF000007047303132333435363789
:103EF000383941424344454640305800303132332E
:103F0000343536373839616263646566403078002D
:103F10000400000800000000000000020001000092
:103F200010000000000000004C5555555555A53FA8
:103F30007751C1166CC156BF9015CB19A001FA3E3E
:103F4000AD529C804F7E92BEC4B1B4BD9EEE213E68
:103F5000D43888BEE9FAA8BD00004054FB21F93FDF
:103F60003163621A61B4D03D0000601A61B4D03D83
:103F70007370032E8A19A33B0000002E8A19A33BFD
:103F8000C14920259A837B39000000000000000011
:103F90006E83F9A22915444ED15727FCC0DD34F5B4
:103FA000999562DB4190433CAB6351FE61C5BBDE3A
:103FB0003A6E24B7E0D24D42EA2E49061C92D1094E
:103FC0001CEB1DFE3EA729B1F53582E88444BB2ECB
:103FD00026709CE9417E5FB439D69139F439538318
:103FE0008B5F849C3B28F9BDFF97F81F0F9805DE77
:103FF0008B112FEF1F6D0A5ACF7E366DB709CB2775
:10400000663F464F2DEA5F9EC7BA27757BF1E5EB09
:10401000F739073DEA92528AB15FFB6B085D8D1F4D
:10402000A6F810111111813FD561C119A0012ABF55
:104030007DFEB157E31DC73EEB9C2B8AE6E55ABED9
:104040007CD5CF5A3AD9E53D3F0000006465630056
:104050006964000072756E74696D650068656C70E6
:10406000000000006C69737400000000686578004F
:10407000766F696420415432344358585F577269EF
:1040800074654F6E654279746528753136205772B4
:10409000697465416464722C75382044617461549C
:1040A0006F57726974652900766F69642077726949
:1040B00074655F6164647228753332206164647270
:1040C0002C7533322076616C290000007538204150
:1040D0005432344358585F526561644F6E6542797B
:1040E00074652875313620526561644164647229B3
:1040F0000000000075333220726561645F616464A2
:10410000722875333220616464722900766F6964A5
:104110002064656C61795F6D7328753136206E6D32
:1041200073290000766F69642064656C61795F753E
:104130007328753332206E75732900005C410008C6
:1041400000000020740300006C01000830420008E9
:10415000740300202C0B0000C80100081184A24A3F
:1041600004001F6A010203040607080920493243BC
:10417000D7DCCFDFCAB5D1E92D41543234433032D8
:104180000D0A08136ACEE2ECDAE7E220B6ADE8F7F2
:10419000AB6820D7E9BACF7E21180F3138203035EF
:1041A00020313720313620333003096C7F11081558
:1041B0006DC7EBCAE4C8EBC4BFB1EAB5D8D6B7BA8D
:1041C000CDCAFDBEDD83911348401B085C041A6410
:1041D000041A50041A6C041A4C041A54041365226D
:1041E0001B08F40813ED341B08A80813D920140881
:1041F0000C41140825211B08240813DD071B087037
:10420000181A85081ACC08133C021420B52B140880
:1042100005241B08B504131D2C23080602E0012DFC
:104220000102030404000900060708090204060845
:040000050800022DC0
:00000001FF
